:020000040800F2
:100000003004002049010008F7070008DF05000858
:10001000F5070008330200085D0B0008000000002F
:10002000000000000000000000000000E1080008DF
:100030003502000800000000F907000899090008CF
:100040006301000863010008630100086301000800
:1000500063010008630100086301000863010008F0
:1000600063010008630100086301000863010008E0
:1000700063010008630100086301000863010008D0
:1000800063010008630100086301000863010008C0
:1000900063010008630100086301000863010008B0
:1000A00063010008630100086301000863010008A0
:1000B0006301000863010008630100086301000890
:1000C0006301000863010008630100086301000880
:1000D0006301000863010008630100086301000870
:1000E0006301000863010008630100086301000860
:1000F0006301000863010008630100086301000850
:10010000630100086301000863010008630100083F
:10011000630100086301000863010008630100082F
:10012000630100086301000863010008630100081F
:10013000DFF810D000F04CF800480047850E0008AA
:10014000AFF300803004002006488047064800478F
:10015000FEE7FEE7FEE7FEE7FEE7FEE7FEE7FEE777
:10016000FEE7FEE79D090008310100082DE9F05F78
:100170000546002092469B46884606468146402416
:100180001BE0284641464746224600F042F85346C7
:100190005A46C01A914110D311461846224600F023
:1001A00029F82D1A67EB01084F462246012000214D
:1001B00000F020F817EB00094E41201EA4F10104C5
:1001C000DFDC484631462A464346BDE8F09F000042
:1001D000064C074D06E0E06840F0010394E8070094
:1001E00098471034AC42F6D3FFF7A6FF100F000873
:1001F000300F0008202A04DB203A00FA02F1002028
:1002000070479140C2F1200320FA03F31943904054
:100210007047202A04DB203A21FA02F000217047BF
:1002200021FA02F3D040C2F120029140084319465E
:100230007047FEE77047000070B50F4D0F4C6E1C05
:100240000121204600F036FA2946204600F04AFAFD
:100250000028F9D00022A021204600F0C0FA314643
:10026000204600F03FFA0028EAD02046BDE8704062
:10027000012100F02BBA00000100001000540040E2
:100280002DE9F04106460D461C4C0121204600F0A8
:1002900011FA1B4F2046394600F0AEF90028F9D07C
:1002A0000022A021204600F09AFA164F2046394637
:1002B00000F0A2F90028F9D03146204600F098FA63
:1002C000104EB61E3146204600F096F90028F9D0AF
:1002D0002946204600F08CFA0A4DAD1C29462046DE
:1002E00000F08AF90028F9D00121204600F0EEF94B
:1002F0002046BDE8F041012100F072B900540040F1
:1003000001000300820007002DE9F04107460D4679
:100310001446214E0121304600F0CCF9DFF87C80F4
:100320003046414600F068F90028F9D00022A021AB
:10033000304600F054FADFF868803046414600F05D
:100340005BF90028F9D03946304600F051FA144FD5
:10035000BF1E3946304600F04FF90028F9D0104F43
:10036000BF1C0CE02978304600F042FA6D1C39467B
:10037000304600F041F90028F9D0641EE4B2002CA8
:10038000F0D10121304600F0A1F93046BDE8F0413E
:10039000012100F025B900000054004001000300D5
:1003A000820007002DE9F04107460D46294E012144
:1003B000304600F07FF9284C3046214600F01CF909
:1003C0000028F9D00022A021304600F008FADFF81A
:1003D0008C803046414600F00FF90028F9D03946AC
:1003E000304600F005FA1D4FBF1E3946304600F07A
:1003F00003F90028F9D00121304600F05BF92146CD
:10040000304600F0F9F80028F9D034460122A12145
:10041000204600F0E4F9104E761C3146204600F0EC
:10042000EBF80028F9D00C4E3F363146204600F05C
:10043000E3F80028F9D0204600F0CEF9287000211A
:10044000204600F0CDF82046BDE8F041012100F043
:100450003DB9000000540040010003008200070085
:100460002DE9F04780460D461446304F01213846AD
:1004700000F020F92E4E3846314600F0BDF8002835
:10048000F9D00022A021384600F0A9F9DFF8A490A5
:100490003846494600F0B0F80028F9D041463846C1
:1004A00000F0A6F9DFF88C80A8F102084146384632
:1004B00000F0A2F80028F9D00121384600F0FAF83F
:1004C0003146384600F098F80028F9D03E4601221F
:1004D000A121304600F083F9154F7F1C3946304684
:1004E00000F08AF80028F9D0114F3F3712E0012CB4
:1004F00003D10021304600F073F83946304600F051
:100500007BF80028F9D0304600F066F905F8010BB9
:10051000641EE4B2002CEAD10121304600F0D6F886
:100520003046BDE8F047012100F05AB800540040C1
:1005300001000300820007002DE9F0410022CC7881
:1005400004F00F03E40601D58C7823430C784FF0B8
:100550000F0714F0FF0F4FF0010C1CD005680CFAC8
:1005600002F40E882640A64211D1960007FA06F83A
:1005700025EA080503FA06F848EA0505CE78282E8C
:1005800002D0482E02D002E0446100E00461521C17
:10059000082AE4D305600A88FF2A1ED9456800228C
:1005A00002F108060CFA06F40E882640A64210D185
:1005B000960007FA06F825EA080503FA06F848EA5D
:1005C0000505CE78282E00D14461CE78482E00D182
:1005D0000461521C082AE3D34560BDE8F081FEE7C0
:1005E000002904D0018841F48061018070470188AE
:1005F00021F4806101807047034600209A8A1B8B9A
:100600001B041A4322F07F42914300D1012070471E
:10061000002904D0018841F0010101807047018860
:1006200021F001010180704770B586B001210820DA
:1006300000F0F2F80121480500F0E0F84020ADF8A4
:10064000140003258DF816501C248DF81740164E03
:1006500005A93046FFF770FF8021ADF814108DF822
:1006600016508DF8174005A93046FFF765FF301585
:10067000ADF80E000001ADF810000C4801904BF6EB
:10068000FF70ADF80A000020ADF808005F20ADF85B
:100690000C00074C01A9204600F03EF8012120463D
:1006A000FFF7B6FF06B070BD000C0140801A0600CF
:1006B00000540040002904D0018841F48071018079
:1006C0007047018821F4807101807047002904D0AF
:1006D000018841F4007101807047018821F40071A4
:1006E000018070470CB50246002000920A0F01926B
:1006F00021F07F41019A002A03D0009A143200921F
:1007000003E0090C009A18320092009A12680A421B
:1007100000D001200CBD000070B586B004460D4627
:10072000A08820F03F0601A800F084F8039828492B
:10073000B0FBF1F189B20E43A680228822F00102BB
:100740002280244B2A689A4209D85200B0FBF2F06A
:1007500080B2042800D20420491C218423E0EB88C5
:10076000A3F53F46FF3E0BD002EBC20303EB0212A0
:10077000B0FBF2F080B240F48040020506D007E002
:1007800002EB4202B0FBF2F080B2F6E740F001006B
:1007900040F400404FF4967251434FF47A72B1FB2B
:1007A000F2F1491C2184A083208840F001002080C0
:1007B00020884FF6F5310840A9886A891143014322
:1007C0002180A88929890843208106B070BD0000D6
:1007D00040420F00A0860100008AC0B27047002A84
:1007E00002D041F0010101E001F0FE0101827047F9
:1007F00001827047FEE7704770470000054A0029F4
:1008000003D0D1690143D1617047D1698143D1617E
:100810007047000000100240054A002903D091698A
:100820000143916170479169814391617047000074
:100830000010024010B5264A516801F00C01254B0A
:10084000002927D0042927D0082927D00360516820
:1008500001F0F0010909204B5C5C0168E140416056
:10086000546804F4E064240A1C5D21FA04F48460F2
:10087000546804F46054E40A1B5DD940C1605268B6
:1008800002F44042920B144B1B1F9A5CB1FBF2F135
:10089000016110BD0360DAE70360D8E7516801F435
:1008A0007011536803F48033022404EB914133B197
:1008B00053689B0307D5094B59430160C7E7074BB2
:1008C00059430160C3E7034B59430160BFE7000090
:1008D0000010024000127A000400002000093D00D0
:1008E000704700F001B800000CB5002201920092A0
:1008F0002748016841F4803101604FF4A06301682A
:1009000001F4003100910199491C0191009911B93C
:1009100001999942F3D10168890302D5012100911F
:1009200000E000920099012930D11A490A6842F08A
:1009300010020A600A6822F003020A600A6842F0A4
:1009400002020A604168416041684160416841F4C7
:1009500080614160416821F47C114160416841F44B
:10096000E8114160016841F080710160016889010E
:10097000FCD5416821F003014160416841F002016A
:1009800041604168C1F381010229FAD10CBD000028
:1009900000100240002002407047000010B50F48D0
:1009A000016841F00101016041680D4A1140416058
:1009B00001680C4A11400160016821F48021016046
:1009C000416821F4FE0141604FF41F018160FFF78F
:1009D00088FF05494FF00060086010BD001002401C
:1009E0000000FFF8FFFFF6FE08ED00E0002904D04C
:1009F000818941F4005181817047818921F400513E
:100A00008181704710B586B001210420FFF704FFF3
:100A100001218803FFF700FF4FF40070ADF81400C8
:100A200018208DF8170003208DF81600144C05A926
:100A30002046FFF781FD2115ADF8141004218DF833
:100A4000171005A92046FFF777FD4FF4E13001901C
:100A50000020ADF80800ADF80A00ADF80C00ADF8C4
:100A600010000C20ADF80E00064C01A9204600F045
:100A700013F801212046FFF7B9FF06B010BD0000B2
:100A800000080140003801400246002012880A4256
:100A900000D001207047000030B585B004460D46F7
:100AA000208A4CF6FF710840E98801432182A08921
:100AB0004EF6F3110840A9882A8911436A89024336
:100AC0001143A181A08A4FF6FF410840A989014343
:100AD000A1826846FFF7AEFE1D48844201D103980B
:100AE00000E00298A189090408D500EBC00101EBE0
:100AF000001029684900B0FBF1F007E000EBC001ED
:100B000001EB001029688900B0FBF1F06422B0FB12
:100B1000F2F109010B096FF018056B4300EB83003C
:100B2000A3891D044FF0320307D503EBC000B0FBCF
:100B3000F2F000F00700084306E003EB0010B0FB02
:100B4000F2F000F00F000843208105B030BD000036
:100B500000380140C1F3080181807047FEE70000C2
:100B60000FB4054B10B503A9044A029800F018F819
:100B700010BC5DF814FB0000610E00081800002096
:100B800002E008C8121F08C1002AFAD17047704756
:100B9000002001E001C1121F002AFBD170470000B4
:100BA0002DE9FF4F8DB09B460F460446002606E018
:100BB00025280BD05A460F999047641C761C207844
:100BC0000028F5D111B03046BDE8F08F0025A846C9
:100BD0000122984900E0054314F8013F203B02FA46
:100BE00003F00842F7D120782E2817D114F8010F0E
:100BF00045F004052A280ED06FF02F022078A0F1CE
:100C0000300109290AD808EB880102EB410100EB09
:100C10000108641CF2E757F8048B641C20786C28E8
:100C20000DD004DC4C2812D06A2811D104E07428BD
:100C30000DD07A280CD10AE045F4001507E0617860
:100C400045F48015814202D1641C05F58015641CB1
:100C50002078692844D008DC0028B3D0582867D011
:100C600063280FD0642808D13AE0702865D0732833
:100C700012D075285AD078285AD05A460F999047E2
:100C8000761CD5E017F8040B8DF8000000208DF8D5
:100C90000100E946012003E057F8049B4FF0FF30C4
:100CA00069074FF0000501D40AE06D1C45450DDAD7
:100CB0008542FADB19F805100029F6D106E06D1C13
:100CC0008542FCDB19F805100029F8D12E4404E018
:100CD00019F8010B5A460F9990476D1EF8D2A7E0FC
:100CE0000A200021CDE90801C5F3025002280CD0EA
:100CF00001CFC117021E71F100020CDA0023D0EB04
:100D0000030063EB01012D2208E0FF1D27F0070718
:100D1000F7E80201EEE72A0504D52B228DF82820FA
:100D200001223CE0EA073AD02022F7E70A2000E05F
:100D300010200021CDE9080107E01020002145F036
:100D40000405CDE908014FF00808C5F30250022858
:100D500010D001CF00214FF0000A2A0720D52278B9
:100D6000702A0DD0DDE908C38CF0100C5CEA030C8E
:100D70000CD015E0FF1D27F00707F7E80201EAE7AE
:100D800040228DF828204FF0010A0CE050EA0103C0
:100D900006D030238DF828308DF829200222924683
:100DA0002278582A04D024A20DF120090B9209E0E0
:100DB00026A2F9E7DDE90823FFF7D8F90B9B9B5C36
:100DC00009F8013D50EA0102F4D1ADEB09002030F1
:100DD0000890680701D44FF001080899884503DDA1
:100DE0000898A8EB000000E000208046002506E0FF
:100DF0000AA85A46405D0F9990476D1C761C5545D0
:100E0000F6DB04E030205A460F999047761CB8F183
:100E10000001A8F10108F5DC05E019F8010B5A46BC
:100E20000F999047761C0899481E08900029F4DC19
:100E3000641CC4E6092801003031323334353637BA
:100E40003839616263646566000000003031323316
:100E500034353637383941424344454600000000B6
:100E600070B50446064DE1B22846FFF773FE8021B7
:100E70002846FFF709FE0028F9D0204670BD000083
:100E800000380140FFF7BEFD16A0FFF769FEFFF72F
:100E9000CBFB01210846FFF7F3F9FFF7CDF902215B
:100EA0000846FFF7EDF9FFF7C7F90322104910468E
:100EB000FFF72AFAFFF7C0F904220E490120FFF7D5
:100EC000CFFA0C4D0520291DFFF76CFA00242146AE
:100ED0002A5D09A0FFF744FE641CE4B2052CF6D39A
:100EE000FEE700004932432D454550524F4D0A0060
:100EF000140000201C00002052656164446174618C
:100F00005B25645D203D20307825780A00000000D4
:100F1000300F0008000000201C000000800B0008BB
:100F20004C0F00081C00002014040000900B000867
:100F30000204060800000000010203040102030489
:0C0F40000607080903040500000000007B
:0400000508000131BD
:00000001FF
