:020000040800F2
:10000000000400204901000899010008950100083A
:100010009701000891010008A902000800000000F3
:100020000000000000000000000000009D0100082A
:1000300093010008000000009B0100085502000821
:100040006301000863010008630100086301000800
:1000500063010008630100086301000863010008F0
:1000600063010008630100086301000863010008E0
:1000700063010008630100086301000863010008D0
:1000800063010008630100086301000863010008C0
:1000900063010008630100086301000863010008B0
:1000A00063010008630100086301000863010008A0
:1000B0006301000863010008630100086301000890
:1000C0006301000863010008630100086301000880
:1000D0006301000863010008630100086301000870
:1000E0006301000863010008630100086301000860
:1000F0006301000863010008630100086301000850
:10010000630100086301000863010008630100083F
:10011000630100086301000863010008630100082F
:10012000630100086301000863010008630100081F
:10013000DFF810D000F01AF800480047C9020008A4
:10014000AFF30080000400200648804706480047BF
:10015000FEE7FEE7FEE7FEE7FEE7FEE7FEE7FEE777
:10016000FEE7FEE75902000831010008064C074D82
:1001700006E0E06840F0010394E807009847103477
:10018000AC42F6D3FFF7D8FFCC020008DC0200082F
:10019000FEE77047FEE7FEE770477047704700F0E4
:1001A00001B800000CB500220192009227480168B6
:1001B00041F4803101604FF4A063016801F4003123
:1001C00000910199491C0191009911B90199994235
:1001D000F3D10168890302D50121009100E000926A
:1001E0000099012930D11A490A6842F010020A60C8
:1001F0000A6822F003020A600A6842F002020A60FA
:100200004168416041684160416841F480614160FA
:10021000416821F47C114160416841F4E81141607A
:10022000016841F08071016001688901FCD5416875
:1002300021F003014160416841F0020141604168E1
:10024000C1F381010229FAD10CBD00000010024067
:10025000002002407047000010B50F48016841F0CF
:100260000101016041680D4A1140416001680C4A7A
:1002700011400160016821F480210160416821F48E
:10028000FE0141604FF41F018160FFF788FF0549BF
:100290004FF00060086010BD001002400000FFF841
:1002A000FFFFF6FE08ED00E0FEE702E008C8121FBF
:1002B00008C1002AFAD170477047002001E001C14F
:1002C000121F002AFBD1704700207047DC02000893
:0C02D0000000002000040000BA0200083A
:0400000508000131BD
:00000001FF
