:020000040800F2
:100000000004002049010008C70200084902000856
:10001000C502000891010008F50300080000000077
:10002000000000000000000000000000E9020008DD
:100030009301000800000000C9020008A1030008A5
:100040006301000863010008630100086301000800
:1000500063010008630100086301000863010008F0
:1000600063010008630100086301000863010008E0
:1000700063010008630100086301000863010008D0
:1000800063010008630100086301000863010008C0
:1000900063010008630100086301000863010008B0
:1000A00063010008630100086301000863010008A0
:1000B0006301000863010008630100086301000890
:1000C0006301000863010008630100086301000880
:1000D0006301000863010008630100086301000870
:1000E0006301000863010008630100086301000860
:1000F0006301000863010008630100086301000850
:10010000630100086301000863010008630100083F
:10011000630100086301000863010008630100082F
:10012000630100086301000863010008630100081F
:10013000DFF810D000F01AF8004800471504000856
:10014000AFF30080000400200648804706480047BF
:10015000FEE7FEE7FEE7FEE7FEE7FEE7FEE7FEE777
:10016000FEE7FEE7A503000831010008064C074D35
:1001700006E0E06840F0010394E807009847103477
:10018000AC42F6D3FFF7D8FF400400085004000843
:10019000FEE770472DE9F0410022CC7804F00F0310
:1001A000E40601D58C7823430C784FF00F0714F048
:1001B000FF0F4FF0010C1CD005680CFA02F40E88FA
:1001C0002640A64211D1960007FA06F825EA08054E
:1001D00003FA06F848EA0505CE78282E02D0482E04
:1001E00002D002E0446100E00461521C082AE4D31A
:1001F00005600A88FF2A1ED94568002202F1080618
:100200000CFA06F40E882640A64210D1960007FA92
:1002100006F825EA080503FA06F848EA0505CE7847
:10022000282E00D14461CE78482E00D10461521CA2
:10023000082AE3D34560BDE8F081024600209268B9
:100240000A4200D001207047FEE7000008B50121F6
:10025000042000F03BF80120ADF8000004208DF8E8
:10026000030069460148FFF795FF08BD00080140FB
:1002700070B504460D4629462046FFF7DEFF0128EB
:1002800001D0002070BD29462046FFF7D6FF012887
:10029000F9D0012070BD000008B50121082000F050
:1002A00015F80220ADF8000010208DF8030003209F
:1002B0008DF8020069460248FFF76CFF08BD000098
:1002C000000C0140FEE7704770470000054A002916
:1002D00003D09169014391617047916981439161B4
:1002E0007047000000100240704700F001B80000A5
:1002F0000CB50022019200922748016841F4803138
:1003000001604FF4A063016801F40031009101998C
:10031000491C0191009911B901999942F3D10168E1
:10032000890302D50121009100E000920099012982
:1003300030D11A490A6842F010020A600A6822F0B5
:1003400003020A600A6842F002020A6041684160E2
:1003500041684160416841F480614160416821F435
:100360007C114160416841F4E8114160016841F04D
:100370008071016001688901FCD5416821F00301A9
:100380004160416841F0020141604168C1F381016F
:100390000229FAD10CBD00000010024000200240EA
:1003A0007047000010B50F48016841F0010101607D
:1003B00041680D4A1140416001680C4A11400160DA
:1003C000016821F480210160416821F4FE0141604F
:1003D0004FF41F018160FFF788FF05494FF000606F
:1003E000086010BD001002400000FFF8FFFFF6FE9D
:1003F00008ED00E0FEE702E008C8121F08C1002A6D
:10040000FAD170477047002001E001C1121F002A95
:10041000FBD17047FFF740FFFFF718FF064D074C71
:1004200001212846FFF724FF0128F9D1206880F038
:1004300002002060F4E70000000801400C0C0140BD
:10044000500400080000002000040000060400081A
:0400000508000131BD
:00000001FF
