:020000040800F2
:1000000060060020B1010008B9010008BB0100082A
:10001000BD010008BF010008C10100080000000088
:10002000000000000000000000000000C301000804
:10003000C501000800000000C7010008C901000850
:10004000CB010008CB010008CB010008CB01000860
:10005000CB010008CB010008CB010008CB01000850
:10006000CB010008CB010008CB010008CB01000840
:10007000CB010008CB010008CB010008CB01000830
:10008000CB010008CB010008CB010008CB01000820
:10009000CB010008CB010008CB010008CB01000810
:1000A000CB010008CB010008CB010008CB01000800
:1000B000CB010008CB010008CB010008CB010008F0
:1000C000CB010008CB010008CB010008CB010008E0
:1000D000CB010008CB010008CB010008CB010008D0
:1000E000CB010008CB010008CB010008CB010008C0
:1000F000CB010008CB010008CB010008CB010008B0
:10010000CB010008CB010008CB010008CB0100089F
:10011000CB010008CB010008CB010008CB0100088F
:10012000CB010008CB010008CB010008CB0100087F
:1001300000F002F800F02CF80AA090E8000C8244CD
:100140008344AAF10107DA4501D100F021F8AFF2AA
:10015000090EBAE80F0013F0010F18BFFB1A43F0A5
:1001600001031847F40200000403000000230024E8
:1001700000250026103A28BF78C1FBD8520728BFB7
:1001800030C148BF0B6070471FB51FBD10B510BD13
:1001900000F031F81146FFF7F7FF00F039F900F0F1
:1001A0004FF803B4FFF7F2FF03BC00F057F800006C
:1001B0000948804709480047FEE7FEE7FEE7FEE7FB
:1001C000FEE7FEE7FEE7FEE7FEE7FEE70448054937
:1001D000054A064B704700000D0400083101000875
:1001E0006000002060060020600200206002002005
:1001F000704770477047754600F02CF8AE46050012
:100200006946534620F00700854618B020B5FFF731
:10021000DDFFBDE820404FF000064FF000074FF033
:1002200000084FF0000BAC46ACE8C009ACE8C009D0
:10023000ACE8C009ACE8C00921F007018D46704761
:1002400010B50446AFF300802046BDE81040FFF72C
:10025000A8BF000000487047000000200149182096
:10026000ABBEFEE7260002007047000088B0079092
:100270000691002005900490039002900190009058
:100280000698808800F00F00059006988088C006C8
:10029000002806D5FFE70698418805980843059091
:1002A000FFE70698007800284BD0FFE70798006822
:1002B000019000200390FFE7039807283DD8FFE74F
:1002C000039901208840029006980088029908400E
:1002D00004900498029988422AD1FFE7039880008D
:1002E000029002990F20884000900099019888435D
:1002F00001900598029900FA01F1019808430190D4
:1003000006988088282806D1FFE7039901208840B5
:10031000079948610BE006988088482806D1FFE7D6
:1003200003990120884007990861FFE7FFE7FFE78D
:10033000FFE7039801300390BEE701980799086032
:10034000FFE706980088B0F5807F50DBFFE707984D
:100350004068019000200390FFE70398072842D8E7
:10036000FFE7039800F108010120884002900698F9
:1003700000880299084004900498029988422DD17F
:10038000FFE703988000029002990F2088400090B8
:1003900000990198884301900598029900FA01F1AB
:1003A00001980843019006988088282808D1FFE723
:1003B000039800F108010120884007994861FFE790
:1003C00006988088482808D1FFE7039800F10801C3
:1003D0000120884007990861FFE7FFE7FFE70398DE
:1003E00001300390B9E7019807994860FFE708B02A
:1003F0007047000082B00190ADF80210BDF80220F5
:10040000019948691043486102B070477047000085
:1004100080B584B041F21801C4F20201086840F0CE
:100420000800086002200190ADF808001020ADF827
:100430000C000320ADF80A0040F60040C4F20100B1
:10044000009002A9FFF712FF00980199FFF7D2FF71
:10045000002004B080BD00006804000800000020F7
:08046000600600006C010008B9
:0400000508000131BD
:00000001FF
