:020000040800F2
:1000000020040020490100084B030008E502000815
:100010004903000833020008C1080008000000007E
:10002000000000000000000000000000450600087D
:1000300035020008000000004D030008FD0600081E
:100040006301000863010008630100086301000800
:1000500063010008630100086301000863010008F0
:1000600063010008630100086301000863010008E0
:1000700063010008630100086301000863010008D0
:1000800063010008630100086301000863010008C0
:1000900063010008630100086301000863010008B0
:1000A00063010008630100086301000863010008A0
:1000B0006301000863010008630100086301000890
:1000C0006301000863010008630100086301000880
:1000D0006301000863010008630100086301000870
:1000E0006301000863010008630100086301000860
:1000F0006301000863010008630100086301000850
:10010000630100086301000863010008630100083F
:10011000630100086301000863010008630100082F
:10012000630100086301000863010008630100081F
:10013000DFF810D000F04CF800480047E90B000849
:10014000AFF300802004002006488047064800479F
:10015000FEE7FEE7FEE7FEE7FEE7FEE7FEE7FEE777
:10016000FEE7FEE701070008310100082DE9F05F16
:100170000546002092469B46884606468146402416
:100180001BE0284641464746224600F042F85346C7
:100190005A46C01A914110D311461846224600F023
:1001A00029F82D1A67EB01084F462246012000214D
:1001B00000F020F817EB00094E41201EA4F10104C5
:1001C000DFDC484631462A464346BDE8F09F000042
:1001D000064C074D06E0E06840F0010394E8070094
:1001E00098471034AC42F6D3FFF7A6FF480C00083E
:1001F000680C0008202A04DB203A00FA02F10020F3
:1002000070479140C2F1200320FA03F31943904054
:100210007047202A04DB203A21FA02F000217047BF
:1002200021FA02F3D040C2F120029140084319465E
:100230007047FEE770472DE9F0410022CC7804F0CA
:100240000F03E40601D58C7823430C784FF00F0799
:1002500014F0FF0F4FF0010C1CD005680CFA02F4EB
:100260000E882640A64211D1960007FA06F825EA24
:10027000080503FA06F848EA0505CE78282E02D0CC
:10028000482E02D002E0446100E00461521C082ABA
:10029000E4D305600A88FF2A1ED94568002202F1CE
:1002A00008060CFA06F40E882640A64210D19600E5
:1002B00007FA06F825EA080503FA06F848EA0505EC
:1002C000CE78282E00D14461CE78482E00D104612A
:1002D000521C082AE3D34560BDE8F08141617047B4
:1002E00001617047FEE7000038B50121082000F0E9
:1002F0002FF82020ADF8000010208DF80300032017
:100300008DF802000F4C69462046FFF794FF01214B
:10031000ADF8001069462046FFF78DFF0221ADF8C9
:10032000001069462046FFF786FF20212046FFF790
:10033000D7FF01212046FFF7D3FF02212046FFF718
:10034000CFFF38BD000C0140FEE77047704700004A
:10035000054A002903D09169014391617047916971
:1003600081439161704700000010024010B5264A99
:10037000516801F00C01254B002927D0042927D012
:10038000082927D00360516801F0F0010909204BCA
:100390005C5C0168E1404160546804F4E064240A54
:1003A0001C5D21FA04F48460546804F46054E40A87
:1003B0001B5DD940C160526802F44042920B144B5D
:1003C0001B1F9A5CB1FBF2F1016110BD0360DAE71B
:1003D0000360D8E7516801F47011536803F4803367
:1003E000022404EB914133B153689B0307D5094BB9
:1003F00059430160C7E7074B59430160C3E7034B0B
:1004000059430160BFE700000010024000127A006B
:100410000400002000093D00002904D0018841F0BB
:10042000400101807047018821F040010180704740
:1004300010B500F03DF8BDE8104000F097B800009E
:100440002DE9F0410746184C4FF480552560174EB2
:1004500009E02068411E216005D2002000F0D0F89C
:10046000C0B2BDE8F0810221304600F057F8002804
:10047000EFD03946304600F05AF8256008E0216890
:100480004A1E226004D2002000F0BAF8C0B2E8E7A9
:100490000121304600F042F80028F0D0304600F04C
:1004A00044F8C0B2DDE70000140000200030014035
:1004B00038B501210C032046FFF74AFF0121042033
:1004C000FFF746FF1021ADF8001003228DF802203F
:1004D0008DF80310104D69462846FFF7ACFEADF8C5
:1004E000004018208DF8030069462846FFF7A3FE58
:1004F0008020ADF8000069462846FFF79CFE4020AA
:10050000ADF8000069462846FFF795FE1021284601
:10051000FFF7E6FE38BD000000080140024600205B
:1005200012890A4200D0012070478089704781817A
:10053000704730B5028802F441530A884C88CD8850
:1005400022438C882C4322430C8922434C8922432A
:100550008C892243CC8922431A430280828B22F465
:1005600000628283098A018230BD000010B586B026
:100570000820ADF810000120ADF80C000220ADF805
:100580000A000720ADF814000020ADF80800ADF80F
:100590000400ADF812004FF48270ADF806004FF47D
:1005A0000070ADF80E00054C01A92046FFF7C1FF11
:1005B00001212046FFF730FF06B010BD003001409A
:1005C00070B50E4E10213046FFF788FE9F20FFF7D2
:1005D00037FF0020FFF734FF05460020FFF730FF0C
:1005E00004460020FFF72CFF290441EA04240443B9
:1005F00010213046FFF774FE204670BD0008014010
:1006000010B5014602A000F05DF9002010BD000009
:100610003C3C2D464C4153482D4552524F522D3EA5
:100620003E205350492054696D656F75742C2065C8
:1006300072726F72436F6465203D2025640D0A0A53
:1006400000000000704700F001B800000CB5002267
:10065000019200922748016841F4803101604FF413
:10066000A063016801F4003100910199491C0191D6
:10067000009911B901999942F3D10168890302D512
:100680000121009100E000920099012930D11A491E
:100690000A6842F010020A600A6822F003020A6047
:1006A0000A6842F002020A604168416041684160A4
:1006B000416841F480614160416821F47C114160EE
:1006C000416841F4E8114160016841F080710160C6
:1006D00001688901FCD5416821F00301416041684E
:1006E00041F0020141604168C1F381010229FAD160
:1006F0000CBD0000001002400020024070470000C6
:1007000010B50F48016841F00101016041680D4AD0
:100710001140416001680C4A11400160016821F4F8
:1007200080210160416821F4FE0141604FF41F0106
:100730008160FFF788FF05494FF00060086010BD39
:10074000001002400000FFF8FFFFF6FE08ED00E099
:10075000002904D0818941F4005181817047818949
:1007600021F400518181704710B586B00121042029
:10077000FFF7EEFD01218803FFF7EAFD4FF400705B
:10078000ADF8140018208DF8170003208DF816001E
:10079000144C05A92046FFF74EFD2115ADF81410A5
:1007A00004218DF8171005A92046FFF744FD4FF4EA
:1007B000E13001900020ADF80800ADF80A00ADF876
:1007C0000C00ADF810000C20ADF80E00064C01A98D
:1007D000204600F013F801212046FFF7B9FF06B0CC
:1007E00010BD000000080140003801400246002012
:1007F00012880A4200D001207047000030B585B051
:1008000004460D46208A4CF6FF710840E9880143F2
:100810002182A0894EF6F3110840A9882A89114344
:100820006A8902431143A181A08A4FF6FF41084023
:10083000A9890143A1826846FFF798FD1D488442BB
:1008400001D1039800E00298A189090408D500EBC2
:10085000C00101EB001029684900B0FBF1F007E08E
:1008600000EBC00101EB001029688900B0FBF1F03A
:100870006422B0FBF2F109010B096FF018056B431C
:1008800000EB8300A3891D044FF0320307D503EB6F
:10089000C000B0FBF2F000F00700084306E003EBF5
:1008A0000010B0FBF2F000F00F000843208105B00B
:1008B00030BD000000380140C1F30801818070475D
:1008C000FEE700000FB4054B10B503A9044A0298D7
:1008D00000F018F810BC5DF814FB0000C50B000810
:1008E0001800002002E008C8121F08C1002AFAD12F
:1008F00070477047002001E001C1121F002AFBD1A0
:10090000704700002DE9FF4F8DB09B460F4604460F
:10091000002606E025280BD05A460F999047641C04
:10092000761C20780028F5D111B03046BDE8F08F54
:100930000025A8460122984900E0054314F8013F2C
:10094000203B02FA03F00842F7D120782E2817D175
:1009500014F8010F45F004052A280ED06FF02F027D
:100960002078A0F1300109290AD808EB880102EBB0
:10097000410100EB0108641CF2E757F8048B641C8A
:1009800020786C280DD004DC4C2812D06A2811D1B4
:1009900004E074280DD07A280CD10AE045F4001543
:1009A00007E0617845F48015814202D1641C05F5A9
:1009B0008015641C2078692844D008DC0028B3D056
:1009C000582867D063280FD0642808D13AE07028EF
:1009D00065D0732812D075285AD078285AD05A4634
:1009E0000F999047761CD5E017F8040B8DF800009E
:1009F00000208DF80100E946012003E057F8049B30
:100A00004FF0FF3069074FF0000501D40AE06D1C7C
:100A100045450DDA8542FADB19F805100029F6D1B3
:100A200006E06D1C8542FCDB19F805100029F8D1A1
:100A30002E4404E019F8010B5A460F9990476D1E99
:100A4000F8D2A7E00A200021CDE90801C5F3025041
:100A500002280CD001CFC117021E71F100020CDA7E
:100A60000023D0EB030063EB01012D2208E0FF1D02
:100A700027F00707F7E80201EEE72A0504D52B2245
:100A80008DF8282001223CE0EA073AD02022F7E73F
:100A90000A2000E010200021CDE9080107E0102025
:100AA000002145F00405CDE908014FF00808C5F321
:100AB0000250022810D001CF00214FF0000A2A076F
:100AC00020D52278702A0DD0DDE908C38CF0100CF7
:100AD0005CEA030C0CD015E0FF1D27F00707F7E8D0
:100AE0000201EAE740228DF828204FF0010A0CE0CD
:100AF00050EA010306D030238DF828308DF82920E4
:100B0000022292462278582A04D024A20DF120090C
:100B10000B9209E026A2F9E7DDE90823FFF726FB9F
:100B20000B9B9B5C09F8013D50EA0102F4D1ADEB4F
:100B3000090020300890680701D44FF00108089997
:100B4000884503DD0898A8EB000000E000208046FF
:100B5000002506E00AA85A46405D0F9990476D1C93
:100B6000761C5545F6DB04E030205A460F99904735
:100B7000761CB8F10001A8F10108F5DC05E019F8D0
:100B8000010B5A460F999047761C0899481E089009
:100B90000029F4DC641CC4E609280100303132333A
:100BA00034353637383961626364656600000000A9
:100BB0003031323334353637383941424344454693
:100BC0000000000070B50446064DE1B22846FFF76C
:100BD00073FE80212846FFF709FE0028F9D0204641
:100BE00070BD000000380140FFF77EFBFFF7BCFD41
:100BF000FFF71EFC0948202101600121016007491F
:100C00000220091D086006A0FFF75CFEFFF7D8FC74
:100C1000014607A0FFF756FEFEE70000100C01405A
:100C20000D0A5350492D464C4153480D0A0000000F
:100C30000D0A466C6173682049442069732030783E
:100C400025580D0A00000000680C00080000002074
:100C50001C000000E4080008840C00081C000020B0
:100C600004040000F4080008020406080000000064
:100C700001020304010203040607080900A00000A2
:040C80000000000070
:0400000508000131BD
:00000001FF
