:020000040800F2
:10000000180400204901000857050008F302000801
:100010005505000833020008A10800080000000090
:10002000000000000000000000000000250600089D
:10003000350200080000000059050008DD06000830
:100040006301000863010008630100086301000800
:1000500063010008630100086301000863010008F0
:1000600063010008630100086301000863010008E0
:1000700063010008630100086301000863010008D0
:1000800063010008630100086301000863010008C0
:1000900063010008630100086301000863010008B0
:1000A00063010008630100086301000863010008A0
:1000B0006301000863010008630100086301000890
:1000C0006301000863010008630100086301000880
:1000D0006301000863010008630100086301000870
:1000E0006301000863010008630100086301000860
:1000F0006301000863010008630100086301000850
:10010000630100086301000863010008630100083F
:10011000630100086301000863010008630100082F
:10012000630100086301000863010008630100081F
:10013000DFF810D000F04CF800480047B90F000875
:10014000AFF30080180400200648804706480047A7
:10015000FEE7FEE7FEE7FEE7FEE7FEE7FEE7FEE777
:10016000FEE7FEE7E1060008310100082DE9F05F37
:100170000546002092469B46884606468146402416
:100180001BE0284641464746224600F042F85346C7
:100190005A46C01A914110D311461846224600F023
:1001A00029F82D1A67EB01084F462246012000214D
:1001B00000F020F817EB00094E41201EA4F10104C5
:1001C000DFDC484631462A464346BDE8F09F000042
:1001D000064C074D06E0E06840F0010394E8070094
:1001E00098471034AC42F6D3FFF7A6FF1C10000866
:1001F0003C100008202A04DB203A00FA02F100201B
:1002000070479140C2F1200320FA03F31943904054
:100210007047202A04DB203A21FA02F000217047BF
:1002200021FA02F3D040C2F120029140084319465E
:100230007047FEE770472DE9F0410022CC7804F0CA
:100240000F03E40601D58C7823430C784FF00F0799
:1002500014F0FF0F4FF0010C1CD005680CFA02F4EB
:100260000E882640A64211D1960007FA06F825EA24
:10027000080503FA06F848EA0505CE78282E02D0CC
:10028000482E02D002E0446100E00461521C082ABA
:10029000E4D305600A88FF2A1ED94568002202F1CE
:1002A00008060CFA06F40E882640A64210D19600E5
:1002B00007FA06F825EA080503FA06F848EA0505EC
:1002C000CE78282E00D14461CE78482E00D104612A
:1002D000521C082AE3D34560BDE8F08102460020A5
:1002E00092680A4200D00120704741617047016165
:1002F0007047FEE710B50C4C80212046FFF7F5FF54
:1003000000F03CF840212046FFF7F1FF00F036F8FE
:1003100040212046FFF7E9FF00F030F82046BDE815
:1003200010408021FFF7E3BF000C014008B5012118
:10033000082000F013F9C020ADF8000014208DF85B
:10034000030003208DF8020069460348FFF773FF9E
:1003500000F09CF808BD0000000C014010B50446F8
:10036000FFF7E4FF00F076F8204600F047F800F0D1
:10037000A1F8044600F08AF8204610BD0020401C79
:10038000C0B20A28FBD3704710B50A4C8021204622
:10039000FFF7ADFFFFF7F2FF40212046FFF7A7FF71
:1003A000FFF7ECFF40212046FFF79FFFBDE810401C
:1003B000FFF7E4BF000C014070B5002400250E4E8D
:1003C0006006040E40213046FFF791FFFFF7D6FF8D
:1003D00080213046FFF782FF08B1641CE4B240215F
:1003E0003046FFF782FFFFF7C9FF6D1CEDB2082D05
:1003F000E6D3204670BD0000000C014070B50546F4
:100400000024134E280604D580213046FFF76FFFE5
:1004100003E080213046FFF768FFFFF7AFFF402180
:100420003046FFF764FFFFF7A9FF40213046FFF792
:100430005CFF072C03D180213046FFF758FF680688
:10044000050EFFF79BFF641CE4B2082CDAD370BDE5
:10045000000C014010B50C4C80212046FFF747FFEF
:1004600040212046FFF743FFFFF788FF8021204609
:10047000FFF73BFFFFF782FF40212046FFF735FFE4
:10048000BDE81040FFF77ABF000C014010B5084CE2
:1004900080212046FFF729FF40212046FFF727FF54
:1004A000FFF76CFF2046BDE810408021FFF71FBF1B
:1004B000000C014070B50E4D80212846FFF717FF54
:1004C000FFF75CFF40212846FFF711FFFFF756FFBB
:1004D00080212846FFF702FF08B1012400E0002434
:1004E00040212846FFF701FFFFF748FF204670BD77
:1004F000000C014038B50121082000F02FF8202021
:10050000ADF8000010208DF8030003208DF80200E4
:100510000F4C69462046FFF78EFE0121ADF8001012
:1005200069462046FFF787FE0221ADF800106946B4
:100530002046FFF780FE20212046FFF7D8FE01214C
:100540002046FFF7D4FE02212046FFF7D0FE38BD3B
:10055000000C0140FEE7704770470000054A002983
:1005600003D0916901439161704791698143916121
:10057000704700000010024010B5264A516801F093
:100580000C01254B002927D0042927D0082927D082
:100590000360516801F0F0010909204B5C5C0168BF
:1005A000E1404160546804F4E064240A1C5D21FACF
:1005B00004F48460546804F46054E40A1B5DD94078
:1005C000C160526802F44042920B144B1B1F9A5CAC
:1005D000B1FBF2F1016110BD0360DAE70360D8E717
:1005E000516801F47011536803F48033022404EB62
:1005F000914133B153689B0307D5094B59430160BF
:10060000C7E7074B59430160C3E7034B59430160F8
:10061000BFE700000010024000127A000400002032
:1006200000093D00704700F001B800000CB5002241
:10063000019200922748016841F4803101604FF433
:10064000A063016801F4003100910199491C0191F6
:10065000009911B901999942F3D10168890302D532
:100660000121009100E000920099012930D11A493E
:100670000A6842F010020A600A6822F003020A6067
:100680000A6842F002020A604168416041684160C4
:10069000416841F480614160416821F47C1141600E
:1006A000416841F4E8114160016841F080710160E6
:1006B00001688901FCD5416821F00301416041686E
:1006C00041F0020141604168C1F381010229FAD180
:1006D0000CBD0000001002400020024070470000E6
:1006E00010B50F48016841F00101016041680D4AF1
:1006F0001140416001680C4A11400160016821F419
:1007000080210160416821F4FE0141604FF41F0126
:100710008160FFF788FF05494FF00060086010BD59
:10072000001002400000FFF8FFFFF6FE08ED00E0B9
:10073000002904D0818941F4005181817047818969
:1007400021F400518181704710B586B00121042049
:10075000FFF704FF01218803FFF700FF4FF400704B
:10076000ADF8140018208DF8170003208DF816003E
:10077000144C05A92046FFF75EFD2115ADF81410B5
:1007800004218DF8171005A92046FFF754FD4FF4FA
:10079000E13001900020ADF80800ADF80A00ADF896
:1007A0000C00ADF810000C20ADF80E00064C01A9AD
:1007B000204600F013F801212046FFF7B9FF06B0EC
:1007C00010BD000000080140003801400246002032
:1007D00012880A4200D001207047000030B585B071
:1007E00004460D46208A4CF6FF710840E988014313
:1007F0002182A0894EF6F3110840A9882A89114365
:100800006A8902431143A181A08A4FF6FF41084043
:10081000A9890143A1826846FFF7AEFE1D488442C4
:1008200001D1039800E00298A189090408D500EBE2
:10083000C00101EB001029684900B0FBF1F007E0AE
:1008400000EBC00101EB001029688900B0FBF1F05A
:100850006422B0FBF2F109010B096FF018056B433C
:1008600000EB8300A3891D044FF0320307D503EB8F
:10087000C000B0FBF2F000F00700084306E003EB15
:100880000010B0FBF2F000F00F000843208105B02B
:1008900030BD000000380140C1F30801818070477D
:1008A000FEE700000FB4054B10B503A9044A0298F7
:1008B00000F018F810BC5DF814FB0000950F00085C
:1008C0001400002002E008C8121F08C1002AFAD153
:1008D00070477047002001E001C1121F002AFBD1C0
:1008E000704700002DE9FF4F8DB00F4605460026EA
:1008F00006E025280BD0DDE90F1290476D1C761C11
:1009000028780028F5D111B03046BDE8F08F0024DA
:10091000A246A1460122E94900E0044315F8013F3F
:10092000203B02FA03F00842F7D128782A2810D099
:100930006FF02F022878A0F13001092914D80AEBB2
:100940008A0102EB410144F0020400EB010A6D1C34
:10095000F0E701CF5FEA000A03D544F40054CAF17E
:10096000000A44F002046D1C28782E2817D115F8CF
:10097000010F44F004042A280ED06FF02F022878CB
:10098000A0F1300109290AD809EB890102EB4101E4
:1009900000EB01096D1CF2E757F8049B6D1C2878E9
:1009A0006C280FD006DC4C2817D068280DD06A2898
:1009B00014D104E0742810D07A280FD10DE044F44B
:1009C00000140AE044F4801401E044F4401469780F
:1009D000814202D104F580146D1C6D1C28786E28AC
:1009E0001ED00CDC632830D004DC00288BD05828C3
:1009F00011D19FE0642867D069280CD164E0732886
:100A00002DD004DC6F2872D0702804D194E07528B2
:100A10006ED078286DD0DDE90F129047761C4BE13F
:100A2000C4F30250022806D0032809D0042801CFBD
:100A300009D0066040E101CFF117C0E900613BE158
:100A400001CF068038E1067036E117F8040B8DF807
:100A5000000000208DF80100EB46012003E057F86C
:100A600004BB4FF0FF3061074FF0000102D40DE0EE
:100A700008F10101884649450FDA8045F8DB1BF88B
:100A800008100029F4D108E008F1010188468142EC
:100A9000FADB1BF808100029F6D1DDE90F23AAEBD9
:100AA00008008146214600F031F9304400EB080689
:100AB00004E0DDE90F121BF8010B9047B8F10108C3
:100AC000F7D221464846F2E00A21C4F302524FF021
:100AD000000B0891022A04D001CFC117032A09D0C4
:100AE0000AE0FF1D27F00707F7E8020108E02CE005
:100AF0001EE01FE000B2C117042A01D140B2C117A5
:100B0000021E71F1000206DA0023D0EB030063EB52
:100B100001012D2202E0220504D52B228DF824208C
:100B2000012203E0E20701D02022F7E7904653E0DC
:100B30000A210BE0102109E010214FF0000B44F0D6
:100B400004044FF00809089103E008214FF0000B5E
:100B50000891C4F30252022A04D001CF0021032AD3
:100B600006D006E0FF1D27F00707F7E8020103E0C3
:100B700080B2042A00D1C0B24FF0000822072BD562
:100B80002A78702A07D0DDF820C08CF0100C5CEABF
:100B90000B0C05D00EE040228DF82420012208E045
:100BA00050EA010306D030238DF824308DF825203B
:100BB00002229046089B83F0080353EA0B030BD1F3
:100BC00050EA010201D1620706D530228DF82420B7
:100BD0004FF00108A9F101092A78582A04D038A257
:100BE0000B9208AA0A920BE03AA2F9E75B46089A30
:100BF000FFF7BCFA0B9B9B5C0A9A521E0A92137079
:100C000050EA0102F2D10A98ADEB000000F1200B8E
:100C1000600702D524F4803401E04FF00109D94582
:100C200002DDA9EB0B0000E0002000EB0B014144CA
:100C30000890AAEB010AE00306D4DDE90F23214660
:100C4000504600F063F806444FF0000908E009A997
:100C500011F80900DDE90F12904709F10109761C2E
:100C6000C145F4DBE0030CD5DDE90F2321465046F6
:100C700000F04CF8064404E0DDE90F123020904704
:100C8000761C0899481E08900029F5DC08E00A98AF
:100C90000A990078491C0A91DDE90F129047761CE9
:100CA000BBF10001ABF1010BF1DC21465046DDE95F
:100CB0000F2300F019F806446D1C21E609280100F5
:100CC00030313233343536373839616263646566C2
:100CD0000000000030313233343536373839414284
:100CE00043444546000000002DE9F041044600253C
:100CF0001E461746880404D405E039462020B04734
:100D00006D1C641EF9D52846BDE8F0812DE9F0413F
:100D1000044600251E469046C80301D5302700E052
:100D20002027880404D505E041463846B0476D1CAD
:100D3000641EF9D52846BDE8F08110B5A020FFF764
:100D40000DFB18B1FFF7A2FB002010BD012010BD64
:100D500001B502E00098401E009000980028F9D1EB
:100D600008BD2DE9F04105460F4616460024FFF761
:100D700071FBA020FFF742FBFFF79CFB68B9F8B2BC
:100D8000FFF73CFBFFF796FB38B9FFF763FBA120A9
:100D9000FFF734FBFFF78EFB20B1FFF777FB002056
:100DA000BDE8F081771E0BE0FFF706FB2855BC423B
:100DB00002D0FFF79FFA01E0FFF7E6FA641CA4B245
:100DC000B442F1D3FFF762FB0120E9E770B5ADF55E
:100DD000007D0024FFF7B1FF10B928A0FFF762FDE6
:100DE00040AD2C55641CA4B2FF2CFAD94FF480748A
:100DF0002246002140A800F09BF8002822D022A023
:100E0000FFF750FD2548FFF7A3FF22460021684663
:100E1000FFF7A7FF002819D021A0FFF743FD24A06A
:100E2000FFF740FD00246E46285D315D814212D0FF
:100E300025A0FFF737FD26A0FFF734FD00200DF5B4
:100E4000007D70BD2AA0FFF72DFDDBE72DA0FFF789
:100E500029FD0020F3E730A0FFF724FDE043000761
:100E600002D12FA0FFF71EFD641CA4B2A02CDBD37F
:100E70002CA0FFF717FD0120E1E700004E6F204591
:100E80004550524F4D0A0000577269746520454520
:100E900050524F4D204F4B0A00000000FFFF0F0043
:100EA0005265616420454550524F4D204F4B0A001A
:100EB000486572652061726520746865207265738B
:100EC000756C74730A0000003078253032580000C9
:100ED0004552524F523A2054686520446174612053
:100EE0006973206E6F7420636F72726563740A0099
:100EF000577269746520454550524F4D20455252F6
:100F00004F520A005265616420454550524F4D20B2
:100F10004552524F520A000020253032580000003E
:100F20000D0A00005465737420506173740A000048
:100F30002DE9F04180460D4600240027002A20D9E3
:100F4000680723D1FFF7A2FA4FF47A76FFF782FA07
:100F5000A020FFF753FAFFF7ADFA18B1641CA4B252
:100F6000B442F3D3B4420CD0E8B2FFF747FAFFF72C
:100F7000A1FA30B918F80700FFF740FAFFF79AFA1C
:100F800020B1FFF783FA0020BDE8F081FFF77EFA79
:100F90000120F9E770B50446064DE1B22846FFF797
:100FA0007BFC80212846FFF711FC0028F9D0204661
:100FB00070BD000000380140FFF79CFA0E4C4FF066
:100FC0002008C4F8008001252560271D02263E6008
:100FD000FFF7BAFB09A0FFF765FCFFF7F7FE012852
:100FE00004D0C7F8008025602660FEE7C4F80080C2
:100FF0003D602660F9E70000100C01404545505265
:101000004F4D20536F667477617265205465737419
:1010100020426567696E200D0A0000003C10000840
:101020000000002018000000C40800085410000848
:101030001800002000040000D4080008020406087C
:10104000000000000102030401020304060708096E
:04105000000000009C
:0400000508000131BD
:00000001FF
