:020000040800F2
:1000000018040020490100083F0200083B020008D4
:100010003D020008910100086D0600080000000084
:10002000000000000000000000000000AD03000818
:100030009301000800000000E102000865040008C8
:100040006301000863010008630100086301000800
:1000500063010008630100086301000863010008F0
:1000600063010008630100086301000863010008E0
:1000700063010008630100086301000863010008D0
:1000800063010008630100086301000863010008C0
:1000900063010008630100086301000863010008B0
:1000A00063010008630100086301000863010008A0
:1000B0006301000863010008630100086301000890
:1000C0006301000863010008630100086301000880
:1000D0006301000863010008630100086301000870
:1000E0006301000863010008630100086301000860
:1000F0006301000863010008630100086301000850
:10010000630100086301000863010008630100083F
:10011000630100086301000863010008630100082F
:10012000630100086301000863010008630100081F
:10013000DFF810D000F01AF80048004785070008E3
:10014000AFF30080180400200648804706480047A7
:10015000FEE7FEE7FEE7FEE7FEE7FEE7FEE7FEE777
:10016000FEE7FEE76904000831010008064C074D70
:1001700006E0E06840F0010394E807009847103477
:10018000AC42F6D3FFF7D8FF7008000890080008CB
:10019000FEE770472DE9F0410022CC7804F00F0310
:1001A000E40601D58C7823430C784FF00F0714F048
:1001B000FF0F4FF0010C1CD005680CFA02F40E88FA
:1001C0002640A64211D1960007FA06F825EA08054E
:1001D00003FA06F848EA0505CE78282E02D0482E04
:1001E00002D002E0446100E00461521C082AE4D31A
:1001F00005600A88FF2A1ED94568002202F1080618
:100200000CFA06F40E882640A64210D1960007FA92
:1002100006F825EA080503FA06F848EA0505CE7847
:10022000282E00D14461CE78482E00D10461521CA2
:10023000082AE3D34560BDE8F081FEE7FEE770479A
:1002400008B54FF4A06000F041F825208DF80000BB
:1002500001208DF801008DF802008DF8030068463A
:1002600000F002F808BD000070B50F23C278012627
:100270000178002A1ED0144A126802F4E062C2F526
:10028000E062120AC2F10404D3404578A5408278A6
:100290001A402A43120101F1E02181F8002400787C
:1002A00000F01F018E404009800000F1E020C0F8FE
:1002B000006170BD01F01F0086404809800000F118
:1002C000E020C0F8806170BD0CED00E002490843F9
:1002D00002490860704700000000FA050CED00E0DC
:1002E00070470000054A002903D0916901439161DC
:1002F000704791698143916170470000001002408E
:1003000010B5264A516801F00C01254B002927D071
:10031000042927D0082927D00360516801F0F00193
:100320000909204B5C5C0168E1404160546804F4B9
:10033000E064240A1C5D21FA04F48460546804F427
:100340006054E40A1B5DD940C160526802F4404227
:10035000920B144B1B1F9A5CB1FBF2F1016110BDB3
:100360000360DAE70360D8E7516801F4701153685D
:1003700003F48033022404EB914133B153689B03AF
:1003800007D5094B59430160C7E7074B5943016043
:10039000C3E7034B59430160BFE700000010024070
:1003A00000127A000400002000093D00704700F0B0
:1003B00001B800000CB500220192009227480168A4
:1003C00041F4803101604FF4A063016801F4003111
:1003D00000910199491C0191009911B90199994223
:1003E000F3D10168890302D50121009100E0009258
:1003F0000099012930D11A490A6842F010020A60B6
:100400000A6822F003020A600A6842F002020A60E7
:100410004168416041684160416841F480614160E8
:10042000416821F47C114160416841F4E811416068
:10043000016841F08071016001688901FCD5416863
:1004400021F003014160416841F0020141604168CF
:10045000C1F381010229FAD10CBD00000010024055
:10046000002002407047000010B50F48016841F0BD
:100470000101016041680D4A1140416001680C4A68
:1004800011400160016821F480210160416821F47C
:10049000FE0141604FF41F018160FFF788FF0549AD
:1004A0004FF00060086010BD001002400000FFF82F
:1004B000FFFFF6FE08ED00E0002904D0818941F439
:1004C000005181817047818921F4005181817047F9
:1004D00010B586B001210420FFF704FF0121880335
:1004E000FFF700FF4FF40070ADF8140018208DF8EE
:1004F000170003208DF81600184C05A92046FFF7B9
:1005000049FE2115ADF8141004218DF8171005A926
:100510002046FFF73FFE4FF4E13001900020ADF898
:100520000800ADF80A00ADF80C00ADF810000C2082
:10053000ADF80E000A4C01A9204600F035F8FFF78F
:100540007FFE012240F22551204600F012F80121E1
:100550002046FFF7B1FF06B010BD000000080140C3
:10056000003801400246002012880A4200D00120D3
:10057000704710B540F66A13C1F3421301F01F042F
:100580000121A140012B07D0022B07D014303AB132
:1005900002680A43026010BD0C30F8E71030F6E73D
:1005A00002688A43026010BD30B585B004460D462E
:1005B000208A4CF6FF710840E98801432182A08916
:1005C0004EF6F3110840A9882A8911436A8902432B
:1005D0001143A181A08A4FF6FF410840A989014338
:1005E000A1826846FFF78CFE1D48844201D1039822
:1005F00000E00298A189090408D500EBC00101EBD5
:10060000001029684900B0FBF1F007E000EBC001E1
:1006100001EB001029688900B0FBF1F06422B0FB07
:10062000F2F109010B096FF018056B4300EB830031
:10063000A3891D044FF0320307D503EBC000B0FBC4
:10064000F2F000F00700084306E003EB0010B0FBF7
:10065000F2F000F00F000843208105B030BD00002B
:1006600000380140C1F3080181807047FEE72DE9A1
:10067000F04107460D461646002405E0295D384640
:1006800000F00CF8641CA4B2B442F7D34021384601
:10069000FFF768FF0028F9D0BDE8F08110B50446E7
:1006A0002046FFF7DFFF80212046FFF75BFF002891
:1006B000F9D010BD70B50546080ACCB201462846EF
:1006C000FFF7D0FF80212846FFF74CFF0028F9D024
:1006D00021462846FFF7C6FF80212846FFF742FF44
:1006E0000028F9D070BD70B506460D46002430468E
:1006F000295DFFF7D3FF641CE4B2285D0028F6D122
:1007000040213046FFF72EFF0028F9D070BD0000D1
:10071000014A024900F013B86107000814000020E4
:1007200002E008C8121F08C1002AFAD170477047BA
:10073000002001E001C1121F002AFBD170472DE902
:10074000F04116460F460446002503E03946B047FF
:10075000641C6D1C20780028F8D12846BDE8F08183
:1007600070B50446064DE1B22846FFF77BFF8021B5
:100770002846FFF7F7FE0028F9D0204670BD00009C
:10078000003801400EB5FFF7A3FE234C612120463F
:10079000FFF784FF0A212046FFF780FF4FF65671CE
:1007A0002046FFF787FF0B221CA12046FFF75FFFC3
:1007B0001EA1D1E900238968CDE9002302910B2213
:1007C00069462046FFF753FF1BA12046FFF78BFF2A
:1007D0001FA0FFF79DFF2449702000F047F8224931
:1007E000752000F043F82049742000F03FF81E49BE
:1007F000632000F03BF81C49682000F037F81A49E4
:10080000612000F033F81849722000F02FF81649E3
:100810000A2000F02BF8FEE70038014048656C6CB8
:100820006F20576F726C64210000000048656C6C8B
:100830006F20576F726C64000A537472696E673A66
:100840002048656C6C6F20576F726C640A00000062
:100850007072696E74663A2048656C6C6F20576FD1
:10086000726C640A0000000014000020FFF778BFDB
:100870009008000800000020180000002007000871
:10088000A808000818000020000400003007000835
:100890000204060800000000010203040102030430
:0808A000060708090000000032
:0400000508000131BD
:00000001FF
