:020000040800F2
:100000002004002049010008A30200083F02000864
:10001000A102000891010008350600080000000058
:100020000000000000000000000000007103000854
:100030009301000800000000A50200082904000840
:100040006301000863010008630100086301000800
:1000500063010008630100086301000863010008F0
:1000600063010008630100086301000863010008E0
:1000700063010008630100086301000863010008D0
:1000800063010008630100086301000863010008C0
:1000900063010008630100086301000863010008B0
:1000A00063010008630100086301000863010008A0
:1000B0006301000863010008630100086301000890
:1000C0006301000863010008630100086301000880
:1000D0006301000863010008630100086301000870
:1000E0006301000863010008630100086301000860
:1000F0006301000863010008630100086301000850
:10010000630100086301000863010008630100083F
:10011000630100086301000863010008630100082F
:10012000630100086301000863010008630100081F
:10013000DFF810D000F01AF80048004795070008D3
:10014000AFF300802004002006488047064800479F
:10015000FEE7FEE7FEE7FEE7FEE7FEE7FEE7FEE777
:10016000FEE7FEE72D04000831010008064C074DAC
:1001700006E0E06840F0010394E807009847103477
:10018000AC42F6D3FFF7D8FFAC080008CC08000853
:10019000FEE770472DE9F0410022CC7804F00F0310
:1001A000E40601D58C7823430C784FF00F0714F048
:1001B000FF0F4FF0010C1CD005680CFA02F40E88FA
:1001C0002640A64211D1960007FA06F825EA08054E
:1001D00003FA06F848EA0505CE78282E02D0482E04
:1001E00002D002E0446100E00461521C082AE4D31A
:1001F00005600A88FF2A1ED94568002202F1080618
:100200000CFA06F40E882640A64210D1960007FA92
:1002100006F825EA080503FA06F848EA0505CE7847
:10022000282E00D14461CE78482E00D10461521CA2
:10023000082AE3D34560BDE8F08101617047FEE71D
:1002400038B50121082000F02FF82020ADF800007B
:1002500010208DF8030003208DF802000F4C694632
:100260002046FFF797FF0121ADF8001069462046B0
:10027000FFF790FF0221ADF8001069462046FFF716
:1002800089FF20212046FFF7D8FF01212046FFF7F4
:10029000D4FF02212046FFF7D0FF38BD000C0140FB
:1002A000FEE7704770470000054A002903D09169B6
:1002B00001439161704791698143916170470000EA
:1002C0000010024010B5264A516801F00C01254B80
:1002D000002927D0042927D0082927D00360516896
:1002E00001F0F0010909204B5C5C0168E1404160CC
:1002F000546804F4E064240A1C5D21FA04F4846068
:10030000546804F46054E40A1B5DD940C16052682B
:1003100002F44042920B144B1B1F9A5CB1FBF2F1AA
:10032000016110BD0360DAE70360D8E7516801F4AA
:100330007011536803F48033022404EB914133B10C
:1003400053689B0307D5094B59430160C7E7074B27
:1003500059430160C3E7034B59430160BFE7000005
:100360000010024000127A000400002000093D0045
:10037000704700F001B800000CB500220192009215
:100380002748016841F4803101604FF4A06301689F
:1003900001F4003100910199491C0191009911B9B2
:1003A00001999942F3D10168890302D50121009195
:1003B00000E000920099012930D11A490A6842F000
:1003C00010020A600A6822F003020A600A6842F01A
:1003D00002020A604168416041684160416841F43D
:1003E00080614160416821F47C114160416841F4C1
:1003F000E8114160016841F0807101600168890184
:10040000FCD5416821F003014160416841F00201DF
:1004100041604168C1F381010229FAD10CBD00009D
:1004200000100240002002407047000010B50F4845
:10043000016841F00101016041680D4A11404160CD
:1004400001680C4A11400160016821F480210160BB
:10045000416821F4FE0141604FF41F018160FFF704
:1004600088FF05494FF00060086010BD0010024091
:100470000000FFF8FFFFF6FE08ED00E0002904D0C1
:10048000818941F4005181817047818921F40051B3
:100490008181704710B586B001210420FFF704FF69
:1004A00001218803FFF700FF4FF40070ADF814003E
:1004B00018208DF8170003208DF81600174C05A999
:1004C0002046FFF767FE2115ADF8141004218DF8C2
:1004D000171005A92046FFF75DFE4FF4E1300190AB
:1004E0000020ADF80800ADF80A00ADF80C00ADF83A
:1004F00010000C20ADF80E00094C01A9204600F0B8
:1005000033F8002240F22551204600F012F8012174
:100510002046FFF7B3FF06B010BD00000008014001
:10052000003801400246002012880A4200D0012013
:10053000704710B540F66A13C1F3421301F01F046F
:100540000121A140012B07D0022B07D014303AB172
:1005500002680A43026010BD0C30F8E71030F6E77D
:1005600002688A43026010BD30B585B004460D466E
:10057000208A4CF6FF710840E98801432182A08956
:100580004EF6F3110840A9882A8911436A8902436B
:100590001143A181A08A4FF6FF410840A989014378
:1005A000A1826846FFF78EFE1D48844201D1039860
:1005B00000E00298A189090408D500EBC00101EB15
:1005C000001029684900B0FBF1F007E000EBC00122
:1005D00001EB001029688900B0FBF1F06422B0FB48
:1005E000F2F109010B096FF018056B4300EB830072
:1005F000A3891D044FF0320307D503EBC000B0FB05
:10060000F2F000F00700084306E003EB0010B0FB37
:10061000F2F000F00F000843208105B030BD00006B
:10062000003801408088C0F308007047C1F308011A
:1006300081807047FEE700000FB4054B10B503A999
:10064000044A029800F017F810BC5DF814FB000093
:100650006D0700081800002002E008C8121F08C13A
:10066000002AFAD170477047002001E001C1121F33
:10067000002AFBD170472DE9F84F994692468846EB
:100680000546002706E025280AD051464A469047ED
:100690006D1C7F1C28780028F5D13846BDE8F88FFE
:1006A000002315F8011F18462E2915D115F8011F32
:1006B00004232A290DD06FF02F022978A1F13004EC
:1006C000092C09D800EB800002EB400008446D1CA7
:1006D000F3E758F8040B6D1C2A78002ADDD0632A52
:1006E00007D0732A0FD0104651464A4690477F1CC8
:1006F0002AE018F8042B8DF8002000218DF8011055
:100700006E46012103E058F8046B4FF0FF315A07A1
:100710004FF0000401D409E0641C84420BDA8C42DF
:10072000FADB325D002AF7D105E0641C8C42FCDB69
:10073000305D0028F9D1274404E016F8010B51463A
:100740004A469047641EF8D26D1CA3E710B5064CCC
:1007500020212046FFF7E6FE0028F9D02046BDE81C
:100760001040FFF75FBF00000038014070B504463D
:10077000064DE1B22846FFF759FF80212846FFF7D2
:10078000D1FE0028F9D0204670BD0000003801409D
:10079000FFF7DCBFFFF77EFEFFF752FD27A0FFF754
:1007A0004BFF29A0FFF748FF37A0FFF745FFDFF811
:1007B000E88020240125A8F1040702263748FFF726
:1007C000E7FF00F0FF09494635A0FFF735FFA9F123
:1007D0003109B9F1070F2DD2DFE809F004090E1332
:1007E000191F2500C8F800403D603E60E6E73C6008
:1007F000C8F800503E60E1E73C603D60C8F800602A
:10080000DCE7C8F80040C8F800503E60D6E7C8F8FA
:1008100000403D60C8F80060D0E73C60C8F8005078
:10082000C8F80060CAE7C8F80040C8F80050C8F827
:100830000060C3E73C603D603E60BFE755534152F6
:10084000542D5247420A0000313A5245442C20327E
:100850003A475245454E2C20333A424C55452C20C0
:10086000343A59454C4C4F572C20353A505552503C
:100870004C452C20363A4359414E2C20373A5748A4
:100880004954450A000000004F74686572733A20AD
:10089000424C41434B0A0000140C0140140000205C
:1008A0006368203D2025630A00000000CC08000892
:1008B000000000201C00000058060008E80800089E
:1008C0001C0000200404000068060008020406085A
:1008D00000000000010203040102030406070809E6
:0808E000000000000000000010
:0400000508000131BD
:00000001FF
