:020000040800F2
:100000000004002049010008CF0300089F030008F6
:10001000CD030008910100087505000800000000EC
:10002000000000000000000000000000690400085B
:1000300093010008000000004904000821050008A1
:100040006301000863010008630100086301000800
:1000500063010008630100089501000863010008BE
:1000600063010008630100086301000863010008E0
:1000700063010008630100086301000863010008D0
:1000800063010008630100086301000863010008C0
:1000900063010008630100086301000863010008B0
:1000A00063010008630100086301000863010008A0
:1000B0006301000863010008630100086301000890
:1000C0006301000863010008630100086301000880
:1000D0006301000863010008630100086301000870
:1000E0006301000863010008630100086301000860
:1000F0006301000863010008630100086301000850
:10010000630100086301000863010008630100083F
:10011000630100086301000863010008630100082F
:10012000630100086301000863010008630100081F
:10013000DFF810D000F01AF80048004795050008D5
:10014000AFF30080000400200648804706480047BF
:10015000FEE7FEE7FEE7FEE7FEE7FEE7FEE7FEE777
:10016000FEE7FEE72505000831010008064C074DB3
:1001700006E0E06840F0010394E807009847103477
:10018000AC42F6D3FFF7D8FFA0050008B005000881
:10019000FEE7704710B5012000F014F820B10548C3
:1001A000016881F002010160BDE81040012000F00B
:1001B00003B800000C0C01400149086070470000C2
:1001C0001404014001460020054A12680A40044B0D
:1001D00014331B680B4202D0002A00D00120704764
:1001E0000004014030B51B4A83790168002B2AD0F6
:1001F00013688B431360111D0B680468A3430B60E5
:10020000017911440B68046823430B60114C0834D6
:100210002168036899432160231D19680568A94373
:1002200019604179102905D011440A680068024319
:100230000A6030BD216802681143216019680068B6
:100240000143196030BD0079104402688A4302609E
:1002500030BD0000000401403EB50121042000F043
:10026000F5F80124ADF8084004208DF80B0002A930
:100270000C4800F041F80121084600F0E7F80021A1
:10028000084600F025F8009400208DF804000C20AA
:100290008DF805008DF806406846FFF7A3FF00F0D3
:1002A00003F83EBD0008014008B54FF4C06000F0FF
:1002B000C1F806208DF8000001208DF801008DF8AE
:1002C00002008DF80300684600F082F808BD0000C7
:1002D00010B58A07120F0F23934021F0030405493C
:1002E00021448C689C438C608B68904003438B60F6
:1002F00010BD0000000001402DE9F0410022CC7843
:1003000004F00F03E40601D58C7823430C784FF0FA
:100310000F0714F0FF0F4FF0010C1CD005680CFA0A
:1003200002F40E882640A64211D1960007FA06F87C
:1003300025EA080503FA06F848EA0505CE78282ECE
:1003400002D0482E02D002E0446100E00461521C59
:10035000082AE4D305600A88FF2A1ED945680022CE
:1003600002F108060CFA06F40E882640A64210D1C7
:10037000960007FA06F825EA080503FA06F848EA9F
:100380000505CE78282E00D14461CE78482E00D1C4
:100390000461521C082AE3D34560BDE8F081FEE702
:1003A00008B50121082000F051F80220ADF8000046
:1003B00010208DF8030003208DF8020069460248E2
:1003C000FFF79AFF08BD0000000C0140FEE77047F0
:1003D00070B50F23C27801260178002A1ED0144A76
:1003E000126802F4E062C2F5E062120AC2F104048B
:1003F000D3404578A54082781A402A43120101F182
:10040000E02181F80024007800F01F018E404009AF
:10041000800000F1E020C0F8006170BD01F01F0015
:1004200086404809800000F1E020C0F8806170BD7E
:100430000CED00E0024908430249086070470000E3
:100440000000FA050CED00E070470000054A0029A5
:1004500003D0916901439161704791698143916132
:100460007047000000100240704700F001B8000023
:100470000CB50022019200922748016841F48031B6
:1004800001604FF4A063016801F40031009101990B
:10049000491C0191009911B901999942F3D1016860
:1004A000890302D50121009100E000920099012901
:1004B00030D11A490A6842F010020A600A6822F034
:1004C00003020A600A6842F002020A604168416061
:1004D00041684160416841F480614160416821F4B4
:1004E0007C114160416841F4E8114160016841F0CC
:1004F0008071016001688901FCD5416821F0030128
:100500004160416841F0020141604168C1F38101ED
:100510000229FAD10CBD0000001002400020024068
:100520007047000010B50F48016841F001010160FB
:1005300041680D4A1140416001680C4A1140016058
:10054000016821F480210160416821F4FE014160CD
:100550004FF41F018160FFF788FF05494FF00060ED
:10056000086010BD001002400000FFF8FFFFF6FE1B
:1005700008ED00E0FEE702E008C8121F08C1002AEB
:10058000FAD170477047002001E001C1121F002A14
:10059000FBD17047FFF704FFFFF75EFEFEE70000A8
:1005A000B0050008000000200004000086050008D7
:0400000508000131BD
:00000001FF
