:020000040800F2
:10000000800400204901000887030008CB02000893
:1000100085030008AF010008D104000800000000BB
:10002000000000000000000000000000C503000800
:100030000502000800000000890300087D04000894
:100040006301000863010008630100086301000800
:1000500063010008630100086301000863010008F0
:1000600063010008630100086301000863010008E0
:1000700063010008630100086301000863010008D0
:1000800063010008630100086301000863010008C0
:1000900063010008630100086301000863010008B0
:1000A00063010008630100086301000863010008A0
:1000B0006301000863010008630100086301000890
:1000C0006301000863010008630100086301000880
:1000D0006301000863010008630100086301000870
:1000E0006301000863010008630100086301000860
:1000F0006301000863010008630100086301000850
:10010000630100086301000863010008630100083F
:10011000630100086301000863010008630100082F
:10012000630100086301000863010008630100081F
:10013000DFF810D000F01AF800480047F10400087A
:10014000AFF300808004002006488047064800473F
:10015000FEE7FEE7FEE7FEE7FEE7FEE7FEE7FEE777
:10016000FEE7FEE78104000831010008064C074D58
:1001700006E0E06840F0010394E807009847103477
:10018000AC42F6D3FFF7D8FFC0050008D005000841
:1001900010B507E003680C68A34201D0002010BD31
:1001A000001D091D521E92B2F4D2012010BDFEE7BF
:1001B000002904D0016841F0010101607047016825
:1001C0004FF6FE7211400160704730B5026847F685
:1001D000F0739A430C6A8B682343D1E904452C439E
:1001E00023438C692343CC6923434C6A23438C6AA1
:1001F000234313430360CA6842600A688260496807
:10020000C16030BD704700224FF47A7305E00021D1
:10021000491C89B29942FBD3521C8242F7D37047E2
:100220002DE9F0410022CC7804F00F03E40601D55B
:100230008C7823430C784FF00F0714F0FF0F4FF02A
:10024000010C1CD005680CFA02F40E882640A64268
:1002500011D1960007FA06F825EA080503FA06F810
:1002600048EA0505CE78282E02D0482E02D002E0BA
:10027000446100E00461521C082AE4D305600A8846
:10028000FF2A1ED94568002202F108060CFA06F47E
:100290000E882640A64210D1960007FA06F825EAF5
:1002A000080503FA06F848EA0505CE78282E00D19D
:1002B0004461CE78482E00D10461521C082AE3D351
:1002C0004560BDE8F08101617047FEE738B5012166
:1002D000082000F069F82020ADF8000010208DF80B
:1002E000030003208DF802000F4C69462046FFF7FB
:1002F00097FF0121ADF8001069462046FFF790FFF7
:100300000221ADF8001069462046FFF789FF202141
:100310002046FFF7D8FF01212046FFF7D4FF022136
:100320002046FFF7D0FF38BD000C014010B58CB05F
:100330000121084600F02AF80F4801900F4802906A
:1003400000200390202104914021059180210691F5
:100350008900079189000891099088000A9040005F
:100360000B90074C01A92046FFF72FFF01212046E3
:10037000FFF71EFF0CB010BD400500080000002074
:100380006C000240FEE7704770470000054A0029F4
:1003900003D05169014351617047516981435161F3
:1003A0007047000000100240054A002903D09169FF
:1003B00001439161704791698143916170470000E9
:1003C00000100240704700F001B800000CB5002298
:1003D000019200922748016841F4803101604FF496
:1003E000A063016801F4003100910199491C019159
:1003F000009911B901999942F3D10168890302D595
:100400000121009100E000920099012930D11A49A0
:100410000A6842F010020A600A6822F003020A60C9
:100420000A6842F002020A60416841604168416026
:10043000416841F480614160416821F47C11416070
:10044000416841F4E8114160016841F08071016048
:1004500001688901FCD5416821F0030141604168D0
:1004600041F0020141604168C1F381010229FAD1E2
:100470000CBD000000100240002002407047000048
:1004800010B50F48016841F00101016041680D4A53
:100490001140416001680C4A11400160016821F47B
:1004A00080210160416821F4FE0141604FF41F0189
:1004B0008160FFF788FF05494FF00060086010BDBC
:1004C000001002400000FFF8FFFFF6FE08ED00E01C
:1004D000FEE702E008C8121F08C1002AFAD17047DF
:1004E0007047002001E001C1121F002AFBD17047B4
:1004F000FFF7ECFEFFF71AFF0E4D20262E600127B6
:100500002F602C1F4FF00208C4F8008042F21070D8
:10051000FFF779FE202208490848FFF739FE20B18D
:1005200026602F60C4F80080FEE72E602760C4F8C4
:100530000080F9E7140C014000000020400500088D
:1005400004030201080706050C0B0A09100F0E0D23
:1005500014131211181716151C1B1A19201F1E1D13
:1005600024232221282726252C2B2A29302F2E2D03
:1005700034333231383736353C3B3A39403F3E3DF3
:1005800044434241484746454C4B4A49504F4E4DE3
:1005900054535251585756555C5B5A59605F5E5DD3
:1005A00064636261686766656C6B6A69706F6E6DC3
:1005B00074737271787776757C7B7A79807F7E7DB3
:1005C000D00500080000002080040000E2040008BC
:0400000508000131BD
:00000001FF
