:020000040800F2
:10000000A0170020490100082B030008C7020008C0
:100010002903000891010008E9060008000000001B
:1000200000000000000000000000000015040008AF
:1000300001020008000000002D030008CD040008A4
:100040006301000863010008630100086301000800
:1000500063010008630100086301000863010008F0
:1000600063010008630100086301000863010008E0
:1000700063010008630100086301000863010008D0
:1000800063010008630100086301000863010008C0
:1000900063010008630100086301000863010008B0
:1000A00063010008630100086301000863010008A0
:1000B0006301000863010008630100086301000890
:1000C0006301000863010008630100086301000880
:1000D0006301000863010008630100086301000870
:1000E0006301000863010008630100086301000860
:1000F0006301000863010008630100086301000850
:10010000630100086301000863010008630100083F
:10011000630100086301000863010008630100082F
:10012000630100086301000863010008630100081F
:10013000DFF810D000F01AF800480047090700085F
:10014000AFF30080A017002006488047064800470C
:10015000FEE7FEE7FEE7FEE7FEE7FEE7FEE7FEE777
:10016000FEE7FEE7D104000831010008064C074D08
:1001700006E0E06840F0010394E807009847103477
:10018000AC42F6D3FFF7D8FF540700087407000805
:10019000FEE70000C10002D502490860704702492D
:1001A000486070470404024000000240002904D067
:1001B000016841F001010160704701684FF6FE726D
:1001C00011400160704730B5026847F6F0739A43FA
:1001D0000C6A8B682343D1E904452C4323438C6983
:1001E0002343CC6923434C6A23438C6A2343134340
:1001F0000360CA6842600A6882604968C16030BDB5
:10020000704700224FF47A7305E00021491C89B23F
:100210009942FBD3521C8242F7D370472DE9F0413B
:100220000022CC7804F00F03E40601D58C78234338
:100230000C784FF00F0714F0FF0F4FF0010C1CD09B
:1002400005680CFA02F40E882640A64211D19600E9
:1002500007FA06F825EA080503FA06F848EA05054C
:10026000CE78282E02D0482E02D002E0446100E071
:100270000461521C082AE4D305600A88FF2A1ED9AB
:100280004568002202F108060CFA06F40E882640A2
:10029000A64210D1960007FA06F825EA080503FAE7
:1002A00006F848EA0505CE78282E00D14461CE78BC
:1002B000482E00D10461521C082AE3D34560BDE8F2
:1002C000F08101617047FEE738B50121082000F098
:1002D0003DF82020ADF8000010208DF80300032029
:1002E0008DF802000F4C69462046FFF797FF012169
:1002F000ADF8001069462046FFF790FF0221ADF8E7
:10030000001069462046FFF789FF20212046FFF7AD
:10031000D8FF01212046FFF7D4FF02212046FFF736
:10032000D0FF38BD000C0140FEE770477047000069
:10033000054A002903D05169014351617047516951
:10034000814351617047000000100240054A0029B6
:1003500003D0916901439161704791698143916133
:10036000704700000010024010B5264A516801F0A5
:100370000C01254B002927D0042927D0082927D094
:100380000360516801F0F0010909204B5C5C0168D1
:10039000E1404160546804F4E064240A1C5D21FAE1
:1003A00004F48460546804F46054E40A1B5DD9408A
:1003B000C160526802F44042920B144B1B1F9A5CBE
:1003C000B1FBF2F1016110BD0360DAE70360D8E729
:1003D000516801F47011536803F48033022404EB74
:1003E000914133B153689B0307D5094B59430160D1
:1003F000C7E7074B59430160C3E7034B594301600B
:10040000BFE700000010024000127A000400002044
:1004100000093D00704700F001B800000CB5002253
:10042000019200922748016841F4803101604FF445
:10043000A063016801F4003100910199491C019108
:10044000009911B901999942F3D10168890302D544
:100450000121009100E000920099012930D11A4950
:100460000A6842F010020A600A6822F003020A6079
:100470000A6842F002020A604168416041684160D6
:10048000416841F480614160416821F47C11416020
:10049000416841F4E8114160016841F080710160F8
:1004A00001688901FCD5416821F003014160416880
:1004B00041F0020141604168C1F381010229FAD192
:1004C0000CBD0000001002400020024070470000F8
:1004D00010B50F48016841F00101016041680D4A03
:1004E0001140416001680C4A11400160016821F42B
:1004F00080210160416821F4FE0141604FF41F0139
:100500008160FFF788FF05494FF00060086010BD6B
:10051000001002400000FFF8FFFFF6FE08ED00E0CB
:10052000002904D0818941F400518181704781897B
:1005300021F400518181704710B586B0012104205B
:10054000FFF704FF01218803FFF700FF4FF400705D
:10055000ADF8140018208DF8170003208DF8160050
:10056000144C05A92046FFF759FE2115ADF81410CB
:1005700004218DF8171005A92046FFF74FFE4FF410
:10058000E13001900020ADF80800ADF80A00ADF8A8
:100590000C00ADF810000C20ADF80E00064C01A9BF
:1005A000204600F015F801212046FFF7B9FF06B0FC
:1005B00010BD00000008014000380140002A03D0AF
:1005C000828A0A4382827047828A8A438282704783
:1005D00030B585B004460D46208A4CF6FF710840C0
:1005E000E98801432182A0894EF6F3110840A988C9
:1005F0002A8911436A8902431143A181A08A4FF6D7
:10060000FF410840A9890143A1826846FFF7ACFE7B
:100610001D48844201D1039800E00298A189090491
:1006200008D500EBC00101EB001029684900B0FBC0
:10063000F1F007E000EBC00101EB00102968890030
:10064000B0FBF1F06422B0FBF2F109010B096FF08D
:1006500018056B4300EB8300A3891D044FF03203A0
:1006600007D503EBC000B0FBF2F000F00700084331
:1006700006E003EB0010B0FBF2F000F00F000843BF
:10068000208105B030BD00000038014010B58CB0AD
:1006900001210846FFF74CFE1048019010480290D7
:1006A0001020039041F288300490002005908021B2
:1006B000069107900890099049010A910B90094C06
:1006C00001A92046FFF77FFD4FF40050FFF762FDC0
:1006D00001212046FFF76AFD0CB010BD043801402F
:1006E0001400002044000240FEE702E008C8121F88
:1006F00008C1002AFAD170477047002001E001C10B
:10070000121F002AFBD17047FFF7DEFDFFF714FF31
:1007100000200D4A502141F288331154401C80B210
:100720009842FAD3FFF7B2FF012280210748FFF772
:1007300045FF074C42F21075216881F020012160CD
:100740002846FFF75EFDF7E714000020003801405F
:100750000C0C014074070008000000201400000089
:10076000EA06000888070008140000208C17000023
:10077000FA06000802040608000000000102030453
:08078000010203040607080949
:0400000508000131BD
:00000001FF
